:100000000C9434000C9451000C9451000C94510049
:100010000C9451000C9451000C9451000C9451001C
:100020000C9451000C9451000C9451000C9451000C
:100030000C9451000C9451000C9451000C945100FC
:100040000C9451000C9451000C9451000C945100EC
:100050000C9451000C9451000C9451000C945100DC
:100060000C9451000C94510011241FBECFEFD8E026
:10007000DEBFCDBF11E0A0E0B1E0EAE7F2E002C0F0
:1000800005900D92A033B107D9F721E0A0E3B1E0CC
:1000900001C01D92A033B207E1F70E940D010C943C
:1000A0003B010C9400000895DC011296ED91FC9147
:1000B000139714968C919081662319F0892B808375
:1000C000089580958923FBCFFFCF823039F08330AC
:1000D00071F0813031F485E290E0089588E290E09B
:1000E000089568E970E080E091E00E9464008BE28E
:1000F00090E00895823039F0833071F0813031F42E
:1001000084E290E0089587E290E0089564EA70E068
:1001100080E091E00E9464008AE290E008958330DC
:1001200039F4611106C08091C1008F7E8093C100B7
:1001300008956130E9F78091C100877FF7CF1816E5
:10014000190624F403D000C00197F9CF0895CF9287
:10015000DF92EF92FF926B017C011C141D041E04C0
:100160001F04CCF480E1C81687E2D806E104F1044C
:100170003CF4C601FF90EF90DF90CF900C949F006D
:1001800088EE93E00E949F0088EEC81A83E0D80AA8
:10019000E108F108E2CFFF90EF90DF90CF90089553
:1001A000CF92DF92EF92FF926B017C011C141D0431
:1001B0001E041F0464F468EE73E080E090E00E9487
:1001C000A70081E0C81AD108E108F108EFCFFF903D
:1001D000EF90DF90CF900895EC016B01F12CE12CB2
:1001E000E881F9810190F081E02D50E040E061E08C
:1001F000CE010995C701B6010E94D000E881F981BE
:100200000190F081E02D50E040E060E0CE010995E2
:10021000C701B6010E94D000E3CFCF93DF9300D097
:1002200000D01F92CDB7DEB78BE291E09A8389832D
:1002300081E00E9465009C838B8380E28D8365E072
:1002400081E00E948F0081E00E947A00FC01908191
:100250008D81982B908368EC70E0CE0101960E940E
:10026000EC0090E080E00F900F900F900F900F90B7
:0A027000DF91CF910895F894FFCFBD
:10027A002E2E2F2E2E2F2E2E2F6C696272617279DE
:10028A002F68776C69622D61726475696E6F2D755E
:10029A006E6F2E687070000000000054005300005A
:00000001FF
